{
  "_format": "hh-sol-artifact-1",
  "contractName": "AgriMarket",
  "sourceName": "contracts/AgriMarket.sol",
  "abi": [
    {
      "inputs": [
        {
          "internalType": "string",
          "name": "name",
          "type": "string"
        },
        {
          "internalType": "uint256",
          "name": "price",
          "type": "uint256"
        }
      ],
      "name": "addProduct",
      "outputs": [],
      "stateMutability": "nonpayable",
      "type": "function"
    },
    {
      "inputs": [
        {
          "internalType": "uint256",
          "name": "id",
          "type": "uint256"
        }
      ],
      "name": "buyProduct",
      "outputs": [],
      "stateMutability": "payable",
      "type": "function"
    },
    {
      "inputs": [],
      "name": "getProducts",
      "outputs": [
        {
          "components": [
            {
              "internalType": "uint256",
              "name": "id",
              "type": "uint256"
            },
            {
              "internalType": "string",
              "name": "name",
              "type": "string"
            },
            {
              "internalType": "uint256",
              "name": "price",
              "type": "uint256"
            },
            {
              "internalType": "address payable",
              "name": "seller",
              "type": "address"
            }
          ],
          "internalType": "struct AgriMarket.Product[]",
          "name": "",
          "type": "tuple[]"
        }
      ],
      "stateMutability": "view",
      "type": "function"
    },
    {
      "inputs": [],
      "name": "nextId",
      "outputs": [
        {
          "internalType": "uint256",
          "name": "",
          "type": "uint256"
        }
      ],
      "stateMutability": "view",
      "type": "function"
    },
    {
      "inputs": [
        {
          "internalType": "uint256",
          "name": "",
          "type": "uint256"
        }
      ],
      "name": "products",
      "outputs": [
        {
          "internalType": "uint256",
          "name": "id",
          "type": "uint256"
        },
        {
          "internalType": "string",
          "name": "name",
          "type": "string"
        },
        {
          "internalType": "uint256",
          "name": "price",
          "type": "uint256"
        },
        {
          "internalType": "address payable",
          "name": "seller",
          "type": "address"
        }
      ],
      "stateMutability": "view",
      "type": "function"
    }
  ],
  "bytecode": "0x6080604052348015600f57600080fd5b50610e648061001f6000396000f3fe60806040526004361061004a5760003560e01c806361b8ce8c1461004f5780637acc0b201461007a5780638642269e146100ba578063b15247d9146100d6578063c29b2f20146100ff575b600080fd5b34801561005b57600080fd5b5061006461012a565b6040516100719190610559565b60405180910390f35b34801561008657600080fd5b506100a1600480360381019061009c91906105b4565b610130565b6040516100b194939291906106b2565b60405180910390f35b6100d460048036038101906100cf91906105b4565b610218565b005b3480156100e257600080fd5b506100fd60048036038101906100f89190610833565b6102f2565b005b34801561010b57600080fd5b506101146103e5565b6040516101219190610a1c565b60405180910390f35b60015481565b6000818154811061014057600080fd5b906000526020600020906004020160009150905080600001549080600101805461016990610a6d565b80601f016020809104026020016040519081016040528092919081815260200182805461019590610a6d565b80156101e25780601f106101b7576101008083540402835291602001916101e2565b820191906000526020600020905b8154815290600101906020018083116101c557829003601f168201915b5050505050908060020154908060030160009054906101000a900473ffffffffffffffffffffffffffffffffffffffff16905084565b600080828154811061022d5761022c610a9e565b5b9060005260206000209060040201905080600201543414610283576040517f08c379a000000000000000000000000000000000000000000000000000000000815260040161027a90610b19565b60405180910390fd5b8060030160009054906101000a900473ffffffffffffffffffffffffffffffffffffffff1673ffffffffffffffffffffffffffffffffffffffff166108fc349081150290604051600060405180830381858888f193505050501580156102ed573d6000803e3d6000fd5b505050565b6000604051806080016040528060015481526020018481526020018381526020013373ffffffffffffffffffffffffffffffffffffffff1681525090806001815401808255809150506001900390600052602060002090600402016000909190919091506000820151816000015560208201518160010190816103759190610ce5565b506040820151816002015560608201518160030160006101000a81548173ffffffffffffffffffffffffffffffffffffffff021916908373ffffffffffffffffffffffffffffffffffffffff1602179055505050600160008154809291906103dc90610de6565b91905055505050565b60606000805480602002602001604051908101604052809291908181526020016000905b8282101561053757838290600052602060002090600402016040518060800160405290816000820154815260200160018201805461044690610a6d565b80601f016020809104026020016040519081016040528092919081815260200182805461047290610a6d565b80156104bf5780601f10610494576101008083540402835291602001916104bf565b820191906000526020600020905b8154815290600101906020018083116104a257829003601f168201915b50505050508152602001600282015481526020016003820160009054906101000a900473ffffffffffffffffffffffffffffffffffffffff1673ffffffffffffffffffffffffffffffffffffffff1673ffffffffffffffffffffffffffffffffffffffff168152505081526020019060010190610409565b50505050905090565b6000819050919050565b61055381610540565b82525050565b600060208201905061056e600083018461054a565b92915050565b6000604051905090565b600080fd5b600080fd5b61059181610540565b811461059c57600080fd5b50565b6000813590506105ae81610588565b92915050565b6000602082840312156105ca576105c961057e565b5b60006105d88482850161059f565b91505092915050565b600081519050919050565b600082825260208201905092915050565b60005b8381101561061b578082015181840152602081019050610600565b60008484015250505050565b6000601f19601f8301169050919050565b6000610643826105e1565b61064d81856105ec565b935061065d8185602086016105fd565b61066681610627565b840191505092915050565b600073ffffffffffffffffffffffffffffffffffffffff82169050919050565b600061069c82610671565b9050919050565b6106ac81610691565b82525050565b60006080820190506106c7600083018761054a565b81810360208301526106d98186610638565b90506106e8604083018561054a565b6106f560608301846106a3565b95945050505050565b600080fd5b600080fd5b7f4e487b7100000000000000000000000000000000000000000000000000000000600052604160045260246000fd5b61074082610627565b810181811067ffffffffffffffff8211171561075f5761075e610708565b5b80604052505050565b6000610772610574565b905061077e8282610737565b919050565b600067ffffffffffffffff82111561079e5761079d610708565b5b6107a782610627565b9050602081019050919050565b82818337600083830152505050565b60006107d66107d184610783565b610768565b9050828152602081018484840111156107f2576107f1610703565b5b6107fd8482856107b4565b509392505050565b600082601f83011261081a576108196106fe565b5b813561082a8482602086016107c3565b91505092915050565b6000806040838503121561084a5761084961057e565b5b600083013567ffffffffffffffff81111561086857610867610583565b5b61087485828601610805565b92505060206108858582860161059f565b9150509250929050565b600081519050919050565b600082825260208201905092915050565b6000819050602082019050919050565b6108c481610540565b82525050565b600082825260208201905092915050565b60006108e6826105e1565b6108f081856108ca565b93506109008185602086016105fd565b61090981610627565b840191505092915050565b61091d81610691565b82525050565b600060808301600083015161093b60008601826108bb565b506020830151848203602086015261095382826108db565b915050604083015161096860408601826108bb565b50606083015161097b6060860182610914565b508091505092915050565b60006109928383610923565b905092915050565b6000602082019050919050565b60006109b28261088f565b6109bc818561089a565b9350836020820285016109ce856108ab565b8060005b85811015610a0a57848403895281516109eb8582610986565b94506109f68361099a565b925060208a019950506001810190506109d2565b50829750879550505050505092915050565b60006020820190508181036000830152610a3681846109a7565b905092915050565b7f4e487b7100000000000000000000000000000000000000000000000000000000600052602260045260246000fd5b60006002820490506001821680610a8557607f821691505b602082108103610a9857610a97610a3e565b5b50919050565b7f4e487b7100000000000000000000000000000000000000000000000000000000600052603260045260246000fd5b7f496e636f727265637420616d6f756e7400000000000000000000000000000000600082015250565b6000610b036010836105ec565b9150610b0e82610acd565b602082019050919050565b60006020820190508181036000830152610b3281610af6565b9050919050565b60008190508160005260206000209050919050565b60006020601f8301049050919050565b600082821b905092915050565b600060088302610b9b7fffffffffffffffffffffffffffffffffffffffffffffffffffffffffffffffff82610b5e565b610ba58683610b5e565b95508019841693508086168417925050509392505050565b6000819050919050565b6000610be2610bdd610bd884610540565b610bbd565b610540565b9050919050565b6000819050919050565b610bfc83610bc7565b610c10610c0882610be9565b848454610b6b565b825550505050565b600090565b610c25610c18565b610c30818484610bf3565b505050565b5b81811015610c5457610c49600082610c1d565b600181019050610c36565b5050565b601f821115610c9957610c6a81610b39565b610c7384610b4e565b81016020851015610c82578190505b610c96610c8e85610b4e565b830182610c35565b50505b505050565b600082821c905092915050565b6000610cbc60001984600802610c9e565b1980831691505092915050565b6000610cd58383610cab565b9150826002028217905092915050565b610cee826105e1565b67ffffffffffffffff811115610d0757610d06610708565b5b610d118254610a6d565b610d1c828285610c58565b600060209050601f831160018114610d4f5760008415610d3d578287015190505b610d478582610cc9565b865550610daf565b601f198416610d5d86610b39565b60005b82811015610d8557848901518255600182019150602085019450602081019050610d60565b86831015610da25784890151610d9e601f891682610cab565b8355505b6001600288020188555050505b505050505050565b7f4e487b7100000000000000000000000000000000000000000000000000000000600052601160045260246000fd5b6000610df182610540565b91507fffffffffffffffffffffffffffffffffffffffffffffffffffffffffffffffff8203610e2357610e22610db7565b5b60018201905091905056fea26469706673582212208a935ace032e2d82e75e0afb44691ce31eb796f6436ef9df9f9be333051dcc9464736f6c634300081c0033",
  "linkReferences": {},
  "deployedLinkReferences": {}
}